:04000000CCEF01F050
:1001000000303132333435363738396162636465F3
:10011000660A0A0A0A4C6576697461746F720A008D
:0101200000DE
:10012200100E325C270E3358D8A00ED032C026F003
:1001320033C027F0270E296E100E286E82EC01F0D4
:100142002650300F17EC02F0E80E325C030E3358E3
:10015200D8A018D0030E296EE80E286E32C026F001
:1001620033C027F082EC01F026C02DF027C02EF01C
:10017200000E306E0A0E2F6EABEC01F02D50300FD8
:1001820017EC02F0335004E1640E325CD8A018D0B0
:10019200000E296E640E286E32C026F033C027F09E
:1001A20082EC01F026C02DF027C02EF0000E306E3A
:1001B2000A0E2F6EABEC01F02D50300F17EC02F04F
:1001C200335004E10A0E325CD8A018D0000E296E1A
:1001D2000A0E286E32C026F033C027F082EC01F0FE
:1001E20026C02DF027C02EF0000E306E0A0E2F6EA4
:1001F200ABEC01F02D50300F17EC02F032C02DF0B5
:1002020033C02EF0000E306E0A0E2F6EABEC01F0F2
:100212002D50300F17EC02F012009EAC12009E9C83
:100222003E683F68400EC35C020EC458D8A009D095
:10023200000E3D6E000E3C6ECE0E406E030E416E01
:1002420012003D04D8B02ED03C4A3D2AC50E3F6E66
:10025200680E3E6EC3CF36F0C4CF37F0361E371E5F
:10026200364A372A400E3624386E020E3720396E4F
:10027200D89038343A6E39343B6E3A503E5E3B5039
:100282003F5A3AC034F03BC035F05EEC02F01E0E2D
:10029200276E010E286E2DEC02F0CE0E406E030E7C
:1002A200416E12008990CE0E406E030E416E120016
:1002B200110E276E010E286E2DEC02F0240EAC6E8C
:1002C200800EAB6E080EAA6E680EAF6E8A9693967B
:1002D20089909290090EC26EFB0EC16EBE0EC06E68
:1002E200810ED56E0400FFEC01F001D8FBD70500AA
:1002F200FA6E4050FD6E4150FE6EF850FF6EFA509D
:100302001200000E2B6E000E2A6E28502910D8B44F
:100312001CD0010E2C6E04D0D890283629362C2AF7
:1003220029AEFAD7D8902A362B362850265C295087
:100332002758D8A005D02850265E2950275A2A804F
:10034200D890293228322C2EEDD72AC026F02BC085
:1003520027F012002F503010D8B418D0010E316E91
:1003620004D0D8902F363036312A30AEFAD72F50FB
:100372002D5C30502E58D8A004D02F502D5E305016
:100382002E5AD89030322F32312EF1D72DC02DF087
:100392002EC02EF01200DA0EF66E040EF76E000E6C
:1003A200F86E00EE3CF010EE06F00900F5CFEEFF1D
:1003B200E550E150FAE100EE01F0250EEE6AE806A2
:1003C200FDE1000EF86E000159EF01F03E2803E155
:1003D2003F28D8B410D089808A86000E226E000E83
:1003E200216E3F50D76E3EC0D6FFA20E406E040E65
:1003F200416EF294120042EC02F012002550D8B481
:1004020012009EA812009E982350010D010EF324A3
:10041200D96E000EF420DA6EDF50AD6E232A250667
:100422001F0E23641200000E236E1200266E200E91
:10043200256012002450010D010EF324D96E000E26
:10044200F420DA6E26C0DFFF242A252A1F0E246438
:100452001200000E246E12000AD027C0F6FF28C038
:10046200F7FF0800F55017EC02F0274A282A27C0A8
:10047200F6FF28C0F7FF0800F5500009D8B41200B3
:10048200ECD7C2821C0E406E020E416E225007E172
:10049200640E215CD8B01200214A222A12001200F6
:1004A200F2A412008A96E20ED76EB40ED66ED00E69
:1004B200406E040E416EF294120034C032F035C028
:1004C20033F091EC00F0200E17EC02F01200F2A4CF
:0E04D200120042EC02F012000001FFFFA20433
:020000040020DA
:08000000FFFFFFFFFFFFFFFF00
:020000040030CA
:0E000000FFC40B1FFF8081FF03C003E003401D
:00000001FF
